{
  "contractName": "SecretSharing",
  "abi": [
    {
      "inputs": [],
      "stateMutability": "nonpayable",
      "type": "constructor"
    },
    {
      "inputs": [
        {
          "internalType": "int256",
          "name": "a",
          "type": "int256"
        },
        {
          "internalType": "int256",
          "name": "b",
          "type": "int256"
        }
      ],
      "name": "gcd",
      "outputs": [
        {
          "internalType": "int256",
          "name": "",
          "type": "int256"
        }
      ],
      "stateMutability": "pure",
      "type": "function"
    },
    {
      "inputs": [
        {
          "components": [
            {
              "internalType": "int256",
              "name": "numerator",
              "type": "int256"
            },
            {
              "internalType": "int256",
              "name": "denominator",
              "type": "int256"
            }
          ],
          "internalType": "struct SecretSharing.Fraction",
          "name": "f",
          "type": "tuple"
        }
      ],
      "name": "reduceFraction",
      "outputs": [
        {
          "components": [
            {
              "internalType": "int256",
              "name": "numerator",
              "type": "int256"
            },
            {
              "internalType": "int256",
              "name": "denominator",
              "type": "int256"
            }
          ],
          "internalType": "struct SecretSharing.Fraction",
          "name": "",
          "type": "tuple"
        }
      ],
      "stateMutability": "pure",
      "type": "function"
    },
    {
      "inputs": [
        {
          "components": [
            {
              "internalType": "int256",
              "name": "numerator",
              "type": "int256"
            },
            {
              "internalType": "int256",
              "name": "denominator",
              "type": "int256"
            }
          ],
          "internalType": "struct SecretSharing.Fraction",
          "name": "f1",
          "type": "tuple"
        },
        {
          "components": [
            {
              "internalType": "int256",
              "name": "numerator",
              "type": "int256"
            },
            {
              "internalType": "int256",
              "name": "denominator",
              "type": "int256"
            }
          ],
          "internalType": "struct SecretSharing.Fraction",
          "name": "f2",
          "type": "tuple"
        }
      ],
      "name": "multiply",
      "outputs": [
        {
          "components": [
            {
              "internalType": "int256",
              "name": "numerator",
              "type": "int256"
            },
            {
              "internalType": "int256",
              "name": "denominator",
              "type": "int256"
            }
          ],
          "internalType": "struct SecretSharing.Fraction",
          "name": "",
          "type": "tuple"
        }
      ],
      "stateMutability": "pure",
      "type": "function"
    },
    {
      "inputs": [
        {
          "components": [
            {
              "internalType": "int256",
              "name": "numerator",
              "type": "int256"
            },
            {
              "internalType": "int256",
              "name": "denominator",
              "type": "int256"
            }
          ],
          "internalType": "struct SecretSharing.Fraction",
          "name": "f1",
          "type": "tuple"
        },
        {
          "components": [
            {
              "internalType": "int256",
              "name": "numerator",
              "type": "int256"
            },
            {
              "internalType": "int256",
              "name": "denominator",
              "type": "int256"
            }
          ],
          "internalType": "struct SecretSharing.Fraction",
          "name": "f2",
          "type": "tuple"
        }
      ],
      "name": "add",
      "outputs": [
        {
          "components": [
            {
              "internalType": "int256",
              "name": "numerator",
              "type": "int256"
            },
            {
              "internalType": "int256",
              "name": "denominator",
              "type": "int256"
            }
          ],
          "internalType": "struct SecretSharing.Fraction",
          "name": "",
          "type": "tuple"
        }
      ],
      "stateMutability": "pure",
      "type": "function"
    },
    {
      "inputs": [
        {
          "internalType": "int256",
          "name": "x",
          "type": "int256"
        },
        {
          "internalType": "int256[]",
          "name": "poly",
          "type": "int256[]"
        }
      ],
      "name": "calculateY",
      "outputs": [
        {
          "internalType": "int256",
          "name": "y",
          "type": "int256"
        }
      ],
      "stateMutability": "pure",
      "type": "function"
    },
    {
      "inputs": [
        {
          "internalType": "int256",
          "name": "S",
          "type": "int256"
        },
        {
          "internalType": "uint256",
          "name": "N",
          "type": "uint256"
        },
        {
          "internalType": "uint256",
          "name": "K",
          "type": "uint256"
        }
      ],
      "name": "generateShares",
      "outputs": [
        {
          "components": [
            {
              "internalType": "int256",
              "name": "x",
              "type": "int256"
            },
            {
              "internalType": "int256",
              "name": "y",
              "type": "int256"
            }
          ],
          "internalType": "struct SecretSharing.Point[]",
          "name": "",
          "type": "tuple[]"
        }
      ],
      "stateMutability": "view",
      "type": "function"
    },
    {
      "inputs": [
        {
          "internalType": "int256[]",
          "name": "x",
          "type": "int256[]"
        },
        {
          "internalType": "int256[]",
          "name": "y",
          "type": "int256[]"
        },
        {
          "internalType": "uint256",
          "name": "M",
          "type": "uint256"
        },
        {
          "internalType": "uint256",
          "name": "threshold",
          "type": "uint256"
        }
      ],
      "name": "reconstructSecret",
      "outputs": [
        {
          "internalType": "int256",
          "name": "",
          "type": "int256"
        }
      ],
      "stateMutability": "pure",
      "type": "function"
    }
  ],
  "bytecode": "0x608060405234801561000f575f80fd5b506110838061001d5f395ff3fe608060405234801561000f575f80fd5b506004361061007b575f3560e01c80638a11693b116100595780638a11693b1461010f57806393cb14771461013f5780639457fa801461016f578063f87f472b1461019f5761007b565b8063013d03341461007f57806363b03896146100af578063724cd0ce146100df575b5f80fd5b610099600480360381019061009491906108ab565b6101cf565b6040516100a69190610914565b60405180910390f35b6100c960048036038101906100c4919061092d565b610241565b6040516100d69190610914565b60405180910390f35b6100f960048036038101906100f491906109bc565b61026e565b6040516101069190610a36565b60405180910390f35b61012960048036038101906101249190610a4f565b6102c4565b6040516101369190610a36565b60405180910390f35b61015960048036038101906101549190610aad565b61031a565b6040516101669190610bd2565b60405180910390f35b61018960048036038101906101849190610bf2565b610500565b6040516101969190610914565b60405180910390f35b6101b960048036038101906101b491906109bc565b610673565b6040516101c69190610a36565b60405180910390f35b5f80600190505f5b8351811015610239575f8482815181106101f4576101f3610c8e565b5b60200260200101519050828161020a9190610ce8565b846102159190610d5e565b935085836102239190610ce8565b925050808061023190610d9f565b9150506101d7565b505092915050565b5f5b5f8214610265575f829050828461025a9190610e13565b925080935050610243565b82905092915050565b6102766106e7565b5f6040518060400160405280845f0151865f01516102949190610ce8565b8152602001846020015186602001516102ad9190610ce8565b81525090506102bb816102c4565b91505092915050565b6102cc6106e7565b5f6102de835f01518460200151610241565b905080835f018181516102f19190610e43565b91508181525050808360200181815161030a9190610e43565b9150818152505082915050919050565b60605f8367ffffffffffffffff8111156103375761033661076f565b5b60405190808252806020026020018201604052801561037057816020015b61035d6106ff565b8152602001906001900390816103555790505b5090505f8367ffffffffffffffff81111561038e5761038d61076f565b5b6040519080825280602002602001820160405280156103bc5781602001602082028036833780820191505090505b50905085815f815181106103d3576103d2610c8e565b5b6020026020010181815250505f600190505b84811015610469575f5b5f810361043757633b9aca07428360405160200161040e929190610ecb565b604051602081830303815290604052805190602001205f1c6104309190610e13565b90506103ef565b8083838151811061044b5761044a610c8e565b5b602002602001018181525050508061046290610d9f565b90506103e5565b505f600190505b8581116104f3575f8190505f61048682856101cf565b90505f6001846104969190610ef6565b9050828682815181106104ac576104ab610c8e565b5b60200260200101515f018181525050818682815181106104cf576104ce610c8e565b5b60200260200101516020018181525050505050806104ec90610d9f565b9050610470565b5081925050509392505050565b5f8060405180604001604052805f8152602001600181525090508284101561055d576040517f08c379a000000000000000000000000000000000000000000000000000000000815260040161055490610fa9565b60405180910390fd5b5f5b84811015610663575f604051806040016040528088848151811061058657610585610c8e565b5b60200260200101518152602001600181525090505f5b8681101561064457808314610633575f60405180604001604052808b84815181106105ca576105c9610c8e565b5b60200260200101516105db90610fc7565b81526020018b84815181106105f3576105f2610c8e565b5b60200260200101518c878151811061060e5761060d610c8e565b5b6020026020010151610620919061100d565b815250905061062f838261026e565b9250505b8061063d90610d9f565b905061059c565b5061064f8382610673565b9250508061065c90610d9f565b905061055f565b50805f0151915050949350505050565b61067b6106e7565b5f6040518060400160405280845f0151866020015161069a9190610ce8565b8560200151875f01516106ad9190610ce8565b6106b79190610d5e565b8152602001846020015186602001516106d09190610ce8565b81525090506106de816102c4565b91505092915050565b60405180604001604052805f81526020015f81525090565b60405180604001604052805f81526020015f81525090565b5f604051905090565b5f80fd5b5f80fd5b5f819050919050565b61073a81610728565b8114610744575f80fd5b50565b5f8135905061075581610731565b92915050565b5f80fd5b5f601f19601f8301169050919050565b7f4e487b71000000000000000000000000000000000000000000000000000000005f52604160045260245ffd5b6107a58261075f565b810181811067ffffffffffffffff821117156107c4576107c361076f565b5b80604052505050565b5f6107d6610717565b90506107e2828261079c565b919050565b5f67ffffffffffffffff8211156108015761080061076f565b5b602082029050602081019050919050565b5f80fd5b5f610828610823846107e7565b6107cd565b9050808382526020820190506020840283018581111561084b5761084a610812565b5b835b8181101561087457806108608882610747565b84526020840193505060208101905061084d565b5050509392505050565b5f82601f8301126108925761089161075b565b5b81356108a2848260208601610816565b91505092915050565b5f80604083850312156108c1576108c0610720565b5b5f6108ce85828601610747565b925050602083013567ffffffffffffffff8111156108ef576108ee610724565b5b6108fb8582860161087e565b9150509250929050565b61090e81610728565b82525050565b5f6020820190506109275f830184610905565b92915050565b5f806040838503121561094357610942610720565b5b5f61095085828601610747565b925050602061096185828601610747565b9150509250929050565b5f80fd5b5f604082840312156109845761098361096b565b5b61098e60406107cd565b90505f61099d84828501610747565b5f8301525060206109b084828501610747565b60208301525092915050565b5f80608083850312156109d2576109d1610720565b5b5f6109df8582860161096f565b92505060406109f08582860161096f565b9150509250929050565b610a0381610728565b82525050565b604082015f820151610a1d5f8501826109fa565b506020820151610a3060208501826109fa565b50505050565b5f604082019050610a495f830184610a09565b92915050565b5f60408284031215610a6457610a63610720565b5b5f610a718482850161096f565b91505092915050565b5f819050919050565b610a8c81610a7a565b8114610a96575f80fd5b50565b5f81359050610aa781610a83565b92915050565b5f805f60608486031215610ac457610ac3610720565b5b5f610ad186828701610747565b9350506020610ae286828701610a99565b9250506040610af386828701610a99565b9150509250925092565b5f81519050919050565b5f82825260208201905092915050565b5f819050602082019050919050565b604082015f820151610b3a5f8501826109fa565b506020820151610b4d60208501826109fa565b50505050565b5f610b5e8383610b26565b60408301905092915050565b5f602082019050919050565b5f610b8082610afd565b610b8a8185610b07565b9350610b9583610b17565b805f5b83811015610bc5578151610bac8882610b53565b9750610bb783610b6a565b925050600181019050610b98565b5085935050505092915050565b5f6020820190508181035f830152610bea8184610b76565b905092915050565b5f805f8060808587031215610c0a57610c09610720565b5b5f85013567ffffffffffffffff811115610c2757610c26610724565b5b610c338782880161087e565b945050602085013567ffffffffffffffff811115610c5457610c53610724565b5b610c608782880161087e565b9350506040610c7187828801610a99565b9250506060610c8287828801610a99565b91505092959194509250565b7f4e487b71000000000000000000000000000000000000000000000000000000005f52603260045260245ffd5b7f4e487b71000000000000000000000000000000000000000000000000000000005f52601160045260245ffd5b5f610cf282610728565b9150610cfd83610728565b9250828202610d0b81610728565b91507f800000000000000000000000000000000000000000000000000000000000000084145f84121615610d4257610d41610cbb565b5b8282058414831517610d5757610d56610cbb565b5b5092915050565b5f610d6882610728565b9150610d7383610728565b92508282019050828112155f8312168382125f841215161715610d9957610d98610cbb565b5b92915050565b5f610da982610a7a565b91507fffffffffffffffffffffffffffffffffffffffffffffffffffffffffffffffff8203610ddb57610dda610cbb565b5b600182019050919050565b7f4e487b71000000000000000000000000000000000000000000000000000000005f52601260045260245ffd5b5f610e1d82610728565b9150610e2883610728565b925082610e3857610e37610de6565b5b828207905092915050565b5f610e4d82610728565b9150610e5883610728565b925082610e6857610e67610de6565b5b60015f0383147f800000000000000000000000000000000000000000000000000000000000000083141615610ea057610e9f610cbb565b5b828205905092915050565b5f819050919050565b610ec5610ec082610a7a565b610eab565b82525050565b5f610ed68285610eb4565b602082019150610ee68284610eb4565b6020820191508190509392505050565b5f610f0082610a7a565b9150610f0b83610a7a565b9250828203905081811115610f2357610f22610cbb565b5b92915050565b5f82825260208201905092915050565b7f5468726573686f6c64206e756d626572206f6620736861726573206e6f7420705f8201527f726f766964656421000000000000000000000000000000000000000000000000602082015250565b5f610f93602883610f29565b9150610f9e82610f39565b604082019050919050565b5f6020820190508181035f830152610fc081610f87565b9050919050565b5f610fd182610728565b91507f8000000000000000000000000000000000000000000000000000000000000000820361100357611002610cbb565b5b815f039050919050565b5f61101782610728565b915061102283610728565b925082820390508181125f8412168282135f85121516171561104757611046610cbb565b5b9291505056fea2646970667358221220e7488e5ff788635d35afe0e436ad59f36bc837c986493b9ee01a0bcba6055e5564736f6c63430008150033",
  "immutableReferences": {},
  "source": "// SPDX-License-Identifier: UNLICENSED\r\npragma solidity ^0.8.19;\r\n\r\ncontract SecretSharing {\r\n\r\n    struct Point {\r\n        int x;\r\n        int y;\r\n    }\r\n\r\n    struct Fraction {\r\n        int256 numerator;\r\n        int256 denominator;\r\n    }\r\n\r\n    // Constructor function.\r\n    constructor() {\r\n         \r\n    }\r\n\r\n    function gcd(int256 a, int256 b) public pure returns (int256) {\r\n        while (b != 0) {\r\n            int256 temp = b;\r\n            b = a % b;\r\n            a = temp;\r\n        }\r\n        return a;\r\n    }\r\n\r\n    function reduceFraction(Fraction memory f) public pure returns (Fraction memory) {\r\n        int256 gcdValue = gcd(f.numerator, f.denominator);\r\n        f.numerator /= gcdValue;\r\n        f.denominator /= gcdValue;\r\n        return f;\r\n    }\r\n\r\n    function multiply(Fraction memory f1, Fraction memory f2) public pure returns (Fraction memory) {\r\n        Fraction memory temp = Fraction(f1.numerator * f2.numerator, f1.denominator * f2.denominator);\r\n        return reduceFraction(temp);\r\n    }\r\n\r\n    function add(Fraction memory f1, Fraction memory f2) public pure returns (Fraction memory) {\r\n        Fraction memory temp = Fraction(\r\n            f1.numerator * f2.denominator + f1.denominator * f2.numerator,\r\n            f1.denominator * f2.denominator\r\n        );\r\n        return reduceFraction(temp);\r\n    }\r\n    \r\n    function calculateY(int x, int[] memory poly) public pure returns (int y) {\r\n        // Initializing y\r\n        y = 0;\r\n        int temp = 1;\r\n \r\n        // Iterating through the array\r\n        for (uint256 i = 0; i < poly.length; i++) {\r\n            int coeff = poly[i];\r\n \r\n            // Computing the value of y\r\n            y = y + (coeff * temp);\r\n            temp = temp * x;\r\n        }\r\n    }\r\n\r\n    function generateShares(int S, uint N, uint256 K) public view returns (Point[] memory){\r\n        Point[] memory points= new Point[](N);\r\n        //console.log(K);\r\n        int[] memory poly = new int[](K);\r\n        poly[0] = S;\r\n \r\n        for (uint256 j = 1; j < K; ++j) {\r\n            int256 p = 0;\r\n            while (p == 0) {\r\n                p = int256(uint256(keccak256(abi.encodePacked(block.timestamp, j)))) % 1000000007; // Use block timestamp and j as a source of randomness\r\n            }\r\n            poly[j] = p;\r\n        }\r\n        for (uint j = 1; j <= N; ++j) {\r\n            uint x = j;\r\n            int y = calculateY(int(x), poly);\r\n            // console.logInt(x);\r\n            // console.logInt(y);\r\n            uint256 piy=uint256(j-1);\r\n            points[piy].x=int(x);\r\n            points[piy].y = y;\r\n        }\r\n        return points;\r\n        // for(uint i=0;i<N;i++)\r\n        // {\r\n        //     console.logInt(points[i].x);\r\n        //     console.logInt(points[i].y);\r\n        // }\r\n    }\r\n\r\n    function reconstructSecret(int256[] memory x, int256[] memory y, uint256 M, uint256 threshold) public pure returns (int256) {\r\n        Fraction memory ans = Fraction(0, 1);\r\n        require(M>=threshold, \"Threshold number of shares not provided!\");\r\n        // Loop to iterate through the given points\r\n        for (uint256 i = 0; i < M; ++i) {\r\n            // Initializing the fraction\r\n            Fraction memory l = Fraction(y[i], 1);\r\n\r\n            for (uint256 j = 0; j < M; ++j) {\r\n                // Computing the lagrange terms\r\n                if (i != j) {\r\n                    Fraction memory temp = Fraction(-x[j], x[i] - x[j]);\r\n                    l = multiply(l, temp);\r\n                }\r\n            }\r\n\r\n            ans = add(ans, l);\r\n        }\r\n\r\n        // Return the secret\r\n        return ans.numerator;\r\n    }\r\n\r\n    \r\n}",
  "sourcePath": "C:\\Users\\ugend\\Desktop\\Secret_Sharing\\contracts\\SecretSharing.sol",
  "compiler": {
    "name": "solc",
    "version": "0.8.21+commit.d9974bed.Emscripten.clang"
  },
  "schemaVersion": "3.4.16",
  "updatedAt": "2024-02-26T16:37:32.359Z",
  "devdoc": {
    "kind": "dev",
    "methods": {},
    "version": 1
  },
  "userdoc": {
    "kind": "user",
    "methods": {},
    "version": 1
  }
}